:100000000C941A010C9437010C9437010C943701AD
:100010000C9437010C9437010C9437010C94370180
:100020000C9437010C9437010C94FA1A0C94CE1BE3
:100030000C941A160C9437010C9437010C94370168
:100040000C9437010C9437010C9437010C94370150
:100050000C9437010C94A1160C9437010C943701C1
:100060000C9437010C9437010C9437010C94370130
:100070000C9437010C9437010C9437010C94370120
:100080000C9437010C9437010C9437010C94370110
:100090000C9437010C9437010C9437010C94370100
:1000A0000C9437010C9437010C9437011E001F008B
:1000B00020005C005D005E00240025002600100387
:1000C000530063006F0074007400300039000000BA
:1000D0001A034300680072006900730020004200A8
:1000E0007500720074006F006E00000004030904C4
:1000F00009023B00020100A0FA090400000103010B
:1001000001000921110100012240000705810308B7
:100110000001090401000103000000092111010090
:100120000122B6000705820320000112010002002F
:10013000000008EDFE0000000101020001050109B8
:1001400002A10185020901A100050919012908156B
:100150000025019508750181020501093009311555
:1001600081257F95027508810609381581257F95BF
:100170000175088106050C0A38021581257F950155
:1001800075088106C0C005010980A1018503190118
:100190002AB700150126B700950175108100C0052A
:1001A0000C0901A101850419012AA002150126A04C
:1001B00002950175108100C005010906A10185069F
:1001C000050719E029E71500250195087501810249
:1001D0000507190029EF1500250195F07501810229
:1001E0000508190129059505750191029501750309
:1001F0009101C005010906A101050719E029E715CC
:100200000025019508750181029501750881010598
:1002100007190029FF150026FF00950675088100C3
:1002200005081901290595057501910295017503C8
:100230009101C00011241FBECFEFDAE0DEBFCDBFB9
:1002400011E0A0E0B1E0E6EEFCE302C005900D9203
:10025000AC38B107D9F722E0ACE8B1E001C01D929B
:10026000A138B207E1F70E9441100C94321E0C94A1
:100270000000811112C0633080F4433070F4E42F29
:10028000F0E083E0689FE00DF11D1124EE0FFF1FE9
:10029000E455FF4F85919491089581E090E0089591
:1002A0000E943901089581E0089581E008950E9437
:1002B0005501089508950E945A010895A5E0B0E0FF
:1002C000E4E6F1E00C949E1D49835A83309193013A
:1002D00089819A81311119C0662399F0222389F00E
:1002E0000E94FF06182F682F89819A810E94DB06E1
:1002F00069817A81812F0E94CC0D2596E3E00C94D0
:10030000BA1D0E94ED06182FF3CF0E94FF066981E7
:100310007A81F1CFFC01262F408151816281738166
:1003200084810E945E01089581E00895CF93DF9358
:10033000EC0160E00E948A01BE010E945B01DF9136
:10034000CF91089508950E94AA050E94A2012FEF5F
:1003500084E39CE0215080409040E1F700C0000021
:1003600008950E94A3010E94C51608950E94A3014A
:100370000E94D61608950F931F93CF93DF938C019D
:1003800061E00E948A01EC01B8010E9457018111CD
:1003900006C080E0DF91CF911F910F910895B801C1
:1003A000CE010E943C148823A1F3B801CE010E9423
:1003B000D212882371F3B801CE010E94AE138823B4
:1003C00041F3F8018281882361F0C330FCE7DF0745
:1003D000E9F058F4C115ECE7DE07A9F0C130DC47BD
:1003E000B9F0C8010E945301D5CFCB358CE7D807AF
:1003F000A9F0CC35ECE7DE0771F0CA35DC4789F7A8
:100400000E94300BEECF0E94B101C3CF0E94380B87
:100410000E94B601BECF0E94260BE3CF0E94340B90
:10042000E0CF0E94F7150E94380208950E943C0216
:100430000E94FC150895089581E008950895CF93D2
:10044000DF93D82F0E941C02C82F882319F08D2F0C
:100450000E941E028C2FDF91CF9108950895CF93B3
:10046000C82F0E941B028C2F0E941F02CF9108955B
:1004700080E00E942F0208950E948A140E942F0299
:100480000895CF930E948A14C82F80918E018C17F3
:1004900079F0C0938E010E94861660938F0170934D
:1004A000900180939101909392018C2F0E942F02D2
:1004B000CF910895ABE0B0E0E0E6F2E00C949F1D30
:1004C0004F83588769877A878B8761110E94710AE9
:1004D0001E821D8285E0FE013796DE011196019095
:1004E0000D928A95E1F78C819D81892B61F4498178
:1004F0005A816B817C818D819E810E9499092B9606
:10050000E2E00C94BB1D89819A8189238F3F79F3A6
:10051000CE0101960E9494018111E9CFF0CFFC0138
:10052000808191810E9431070895662329F00E94FD
:10053000C5100E94981108950E941F11FACFCF9301
:10054000C82F8823B9F08CEF8C0F813AA8F46C2F58
:1005500080910001909101010E941D15882329F0CE
:100560008C2F0E94310A0E94920A8C2F0E94290A25
:100570000E94920ACF91089580E28C0F883048F44F
:10058000C77081E001C0880FCA95EAF70E94540A3B
:10059000EFCFEBE5EC0FE33040F4F0E0E75BFE4F2C
:1005A000808190E00E94BF14E5CFE8E5EC0FEB31CD
:1005B00050F4F0E0EE0FFF1FED5EFE4F8081918161
:1005C0000E94E414D7CF83E38C0F833198F661E067
:1005D0008C2F0E949502CECF882381F19CEF980F3B
:1005E000913A28F40E94310A0E94920A089590E2FA
:1005F000980F983050F4877091E001C0990F8A9558
:10060000EAF7892F0E945A0AEFCF9BE5980F9330A3
:1006100028F490E080E00E94BF14089598E5980FB8
:100620009B3128F490E080E00E94E414089593E365
:10063000980F933118F460E00E94950208951F937B
:10064000CF93DF93182FEB010E949F02209739F47C
:10065000812F0E94EC02DF91CF911F9108958FE9C5
:100660009FE00197F1F700C000002197EFCF70E005
:1006700060E0893311F460E570E00E941F03089583
:10068000882321F00E94540A0E94920A0895882328
:1006900021F00E945A0A0E94920A0895B0E0A0E058
:1006A000E4E5F3E00C94981D6C01D62FC72FFC01F4
:1006B0001281058102950F700E944A0AE82E882354
:1006C000E9F0E12E1123D1F08C2F807F803451F09E
:1006D00080E28D0F8830F8F0011104C08C2F807EED
:1006E0008032C9F08091690282FF15C082E00E94C9
:1006F000F50A0E944A0A91E0E82EE926BC2EB2943F
:100700009FE0B922FBE0FB15B8F1EB2DF0E0EC5CCB
:10071000F14E0C94891DE12CF1CF0C2F0F70C07F8E
:1007200011F00295007F112399F0002359F080E227
:100730008D0F883010F0D11107C0802F0E94540A0D
:100740000E94920A8D2F63C0802F0E94640AF8CF06
:100750008D2F0E94EC02002379F080E28D0F88300B
:1007600010F0D11104C0802F0E945A0A03C0802FBC
:100770000E946A0A0E94920A2B2D2850330B2430C3
:10078000310520F40E948A140E942F02EE2089F085
:100790000E94460A80FD0DC0F60112820E94400AA6
:1007A0000E943906C6010E946A050E94400A0E9402
:1007B0004906CDB7DEB7E9E00C94B41D2C2F2F709D
:1007C000F22EC07FC03219F0F29480EFF822DD23C0
:1007D00081F0D13009F449C0112309F451C000233C
:1007E00009F448C0F601858180FFACCF8F70858306
:1007F00041C08091690282FD15C0112359F0FF208C
:1008000029F08F2D0E94540A0E94920A80E00E94D3
:100810009F02B2CF80E00E94EC02FF2009F4ACCF2F
:100820008F2DA2CF112381F0011106C00E94740AFE
:100830008F290E944003A0CF0130C1F70E94740AA3
:100840008F290E947B0A98CF011106C00E94880A56
:100850008F2D0E94470390CF013009F48DCF8F2D4B
:100860000E9447030E94880A87CF112329F006308F
:1008700008F082CF8F2DDDCF053008F07DCFE8CF97
:10088000002331F3D93349F4FFEF27EE33E0F15081
:1008900020403040E1F700C000008D2F0E94EC02A4
:1008A0006BCF8C2F86958695837069F0813009F027
:1008B00063CF8D2F9C2F9370111102C080E090E0C8
:1008C0000E94E41459CF8D2F9C2F9370111102C0F8
:1008D00080E090E00E94BF144FCF612F8D2F0E94C7
:1008E00095024ACF8C2F8370A1F5111145CF4D2F62
:1008F000429546954770440F440F2D2F2F7030E0DE
:10090000042E02C0220F331F0A94E2F790E080E029
:10091000D4FF09C08FE090E002C0880F991F4A956C
:10092000E2F780959095C695C695C370822B932B60
:10093000C23049F058F4C13019F00E9409061CCFAA
:100940000E94000619CF0E94120616CF0E94FD05D4
:1009500013CF8695112311F08C2F8170882309F411
:100960000BCF4D2F429546954770440F440F2D2FC6
:100970002F7030E0042E02C0220F331F0A94E2F7DA
:1009800090E080E0D4FF09C08FE090E002C0880FC3
:10099000991F4A95E2F780959095C695C695C370C4
:1009A000822B932BC23049F058F4C13019F00E94C9
:1009B0007406E2CE0E946B06DFCE0E947D06DCCE7E
:1009C0000E942106D9CECF70112329F08C2F0E94CE
:1009D00039068D2F2ECF8D2F0E9447038C2F0E941A
:1009E0004906CACED23F41F160F4D03FB9F0D13FC1
:1009F00081F0112309F446C00111A4CE8C2F8F7110
:100A00001FC0D33F01F1D43FA1F78091690282FD5D
:100A100024C08C2F8F71112311F312C0112341F0C8
:100A2000053008F0A9CE8C2F8F710E945B06A4CEF2
:100A3000063008F0A1CEF7CF8C2F8F711111CFCFD8
:100A40000E94390699CE112329F08C2F8F710E94B4
:100A50002D0692CE0E9428068FCE112349F0CF7129
:100A60008C2F0E94390663E08C2F0E94D70A84CE17
:100A700081E00E94F50A023008F47ECE82E00E94F6
:100A8000F50A7ACE002359F0D93309F006CF8FEF5B
:100A900097EEE3E081509040E040E1F7FCCE8C2FF0
:100AA0008F719DCF0F931F93CF93DF93EC016881DC
:100AB00079818A810E943C078C010E9486060E94EF
:100AC000FC05B801CE010E944E03DF91CF911F912A
:100AD0000F910895CF93DF93EC018B819C81892B3B
:100AE00029F08881998189238F3F51F4DF91CF913B
:100AF0000895CE010E945205CE010E949601F6CFC4
:100B0000CE010E94BB018111F4CF0E944A0A8823C2
:100B100069F38A81882351F38091690282FFE6CFCD
:100B200082E00E94F50AE2CF90E080E00E94BF14CC
:100B300090E080E00E94E4140E94710A0E94920AF0
:100B40000E94B4110E94981108950E94390A0E94CF
:100B5000940508950E94610A0E94A5050895929542
:100B60009F70963091F058F4925F9F70923058F4D5
:100B7000803F19F030F4883E30F481E008959A5FA8
:100B8000F4CF843FD1F380E00895883EB0F3813FF5
:100B9000D1F7F3CFFC0183819481892B29F08081E7
:100BA000918189238F3F11F480E0089580819181A4
:100BB0000E9431070E94AF050895A5E0B0E0E3EE82
:100BC000F5E00C949F1D2596E2E00C94BB1DA6E079
:100BD000B0E0EDEEF5E00C949F1D2696E2E00C945B
:100BE000BB1D08950E94F10508950E94F20590939F
:100BF0009F0180939E01089508950E94F505089530
:100C000020919E0130919F01822B932B0E94F5052C
:100C1000089520919E0130919F01822393230E9489
:100C2000F505089520919E0130919F018227932719
:100C30000E94F50508950E94F10508950E941B0683
:100C400008950E941E0690939D0180939C01089533
:100C500090E080E00E942106089521E030E0A901A3
:100C600002C0440F551F8A95E2F7CA010E9421066F
:100C7000089521E030E002C0220F331F8A95E2F789
:100C800080919C0190919D01822B932B0E942106C3
:100C9000089521E030E002C0220F331F8A95E2F769
:100CA0002095309580919C0190919D018223932302
:100CB0000E942106089521E030E002C0220F331F78
:100CC0008A95E2F780919C0190919D01822793275C
:100CD0000E942106089520919C0130919D01822B54
:100CE000932B0E942106089520919C0130919D0133
:100CF000822393230E942106089520919C01309124
:100D00009D01822793270E94210608950895262F8A
:100D1000277091E001C0990F2A95EAF723E07695B4
:100D200067952A95E1F7660F771F660F771FFA011F
:100D3000E60FF71F50E040E0682F70E08191DF017F
:100D400011979B01042E02C0369527950A94E2F76D
:100D5000217021952827292328272C934F5F5F4F47
:100D60004430510559F70895A82FA77023E09695B0
:100D700087952A95E1F7880F991F880F991FFB0126
:100D8000E80FF91F50E040E080E0219130E00A2EAA
:100D900002C0369527950A94E2F721703327042E76
:100DA00001C0220F0A94EAF7822B4F5F5F4F443055
:100DB000510559F70895262F933070F4833060F46D
:100DC000682F70E083E0989F600D711D112444E945
:100DD00051E0822F0E9487060895292F933068F4EE
:100DE000833058F490E064E971E033E0239F800D94
:100DF000911D11240E94B406089580E00895B0E08A
:100E0000A0E0E5E0F7E00C94981D7C0100919C01C6
:100E100010919D0180919E0190919F01082B192BAB
:100E2000CFE0D0E0CC24C394D12CBC2EC6010C2E34
:100E300002C0880F991F0A94E2F780239123892B1F
:100E400049F4219790F7B12C8B2DCDB7DEB7E9E0AF
:100E50000C94B41DB7018C2F0E94D80D019789F313
:100E6000F3CFCF93DF93EC010E94FF06BE010E94F7
:100E7000D80DDF91CF9108951F93CF93DF93EB01AE
:100E800090919301992339F0CB010E943107DF91B2
:100E9000CF911F910895882369F0CB010E94FF062E
:100EA000182F682FCE010E94DB06BE01812F0E9401
:100EB000D80DEDCFCB010E94ED06182FF6CF1F9372
:100EC000CF93DF93C091A00116E08091A1018C1314
:100ED00004C0DF91CF911F910895D0E01C9FF001D5
:100EE0001D9FF00D1124EE55FE4F4081518162810E
:100EF0007381848195810E94E7052196C770E5CFB3
:100F00004091D2015091D3016091D4017091D501EB
:100F10008091D6019091D7010E94E7050895209114
:100F2000A0019091A10156E0291302C080E008952C
:100F300030E0529FF001539FF00D1124EE55FE4F0B
:100F40007181761306C07081781303C072817413A7
:100F500004C02F5F3F4F2770E7CF81E008951F93B4
:100F6000CF93DF938091D701807F09F04BC08091B0
:100F7000D401882309F446C08091A001C091A10149
:100F80004091D2015091D3016091D5017091D60169
:100F9000D42FD52316E0C817A9F190E0611571058B
:100FA000A9F1DF3F99F1189FF001199FF00D11246D
:100FB000DF01AE55BE4F11962C911197251326C017
:100FC0002C91241323C012962C91129721111EC02C
:100FD00013962D913C91261B370B283C3105B0F41C
:100FE0008091D7018F7080618093D701E955FE4FC2
:100FF00080818F708061808382ED91E00E946A051C
:101000000E945F07DF91CF911F910895019687702D
:10101000C2CFA1E1B0E0EFE0F8E00C94951D8C01A7
:1010200085E0F801DE011D9601900D928A95E1F7A9
:10103000F801F28082EDA82E81E0B82E4091D50112
:101040005091D6014115510509F45AC19091D20130
:101050002091D301892F82238F3F09F451C1C08091
:10106000D18083809480E090D401B401641B750B1F
:10107000EE2009F4F6C08091D701382F307F683C0C
:10108000710508F0AFC031117AC0EF2C2D1116C0D8
:101090009C1114C0F11012C08F7080618093D70131
:1010A0000E948007C5010E946A058091D701F8015E
:1010B00085838E2D6196ECE00C94B11D8114910412
:1010C000C9F18C2D8D218F3FA9F181E08F2580FF03
:1010D00005C04F2D6D2D8C2D0E948F07811491041A
:1010E00059F18C2D8D218F3F39F181E08F25F82F1B
:1010F000F170BF2E80FF39C04F2D6D2D8C2D0E94B9
:101100008F07A82E811131C0CD86DE868D859E8504
:101110000E943107292F22952F70243078F49F7078
:101120002230A8F09923B9F0F8019581907F99F4C5
:10113000EA2CBFCF80E0CBCF80E0D9CF2A5F2F70E1
:10114000223068F0C8010E946A05AB2CF1CF9923C8
:1011500011F0882369F3805E883050F3F3CF803F2D
:1011600038F3815F833070F7E3CFFF2009F4A1CF1C
:101170008091D70181608093D701E12C9ACF2D1106
:1011800005C09C1103C0FF2009F486C0C8010E945D
:10119000CA05882319F1FF2009F18091D701803217
:1011A00070F02091D2013091D30138872F831986B6
:1011B0009B868A868C87CE0107960E946A0586E008
:1011C000F801A2EDB1E001900D928A95E1F70E943D
:1011D000AF070E948007EE24E3946BCFC8010E9402
:1011E0006A05F9CF311114C0782D998A888AA60131
:1011F0006F2D89890E94DD0582ED91E00E946A05CC
:1012000086E0F50111928A95E9F70E948007B5CF33
:101210002D110EC09C110CC0F1100AC08583C801AD
:101220000E946A0586E0F50111928A95E9F741CF9F
:10123000C8010E94CA05882389F2FF2079F28091B3
:10124000D701803208F4BBCF2091D2013091D30175
:101250003A8329831B829D828C828E83CE010196E4
:10126000ACCF683C710508F03DC0EF2CFF2009F4BD
:10127000B5CF2D1129C09C1127C08091D70180FDC9
:101280001AC0982F907FB9F08583903F31F0982F46
:10129000907F905F8F70892B8583C8010E946A05BB
:1012A00086E0F801A2EDB1E001900D928A95E1F798
:1012B0000E948007FECE86E0F801A2EDB1E0019029
:1012C0000D928A95E1F7F5CEC8010E94CA058111F9
:1012D00076CF8091D70181608093D701C8010E94A9
:1012E0006A05E7CE782D998A888AA6016F2D8989AB
:1012F0000E94DD0586E0F50111928A95E9F7D8CFC5
:10130000FF2009F46BCFC8010E94CA05E82E88238C
:1013100009F464CF86E0F801A2EDB1E001900D92EE
:101320008A95E1F782ED91E00E948F020E94AF075B
:10133000BFCFACE0B0E0EFE9F9E00C949E1D4F8325
:10134000588769877A878B879C87CE0107960E948A
:1013500009088823B1F08A859B85892B39F04F8154
:101360005885842F85238F3F09F06CC016E080914B
:10137000A0019091A101891343C02C96E3E00C9445
:10138000BA1D86E0FE013796DE01119601900D929E
:101390008A95E1F78A859B85892B41F38F81988512
:1013A00089238F3F19F32091A10130E0C9010196F3
:1013B000877099274091A0014817190671F40E947F
:1013C000AA051092A1011092A00186E0E2EDF1E0E1
:1013D000DF011D928A95E9F7C9CF96E0929FD0016F
:1013E000939FB00D1124AE55BE4FFE013196019072
:1013F0000D929A95E1F78093A1010E945F07B6CF05
:10140000819FC00111248E559E4F0E940908882398
:1014100009F4B3CFE091A0011E9FF0011124EE5515
:10142000FE4F4081518162817381848195810E9448
:10143000E7058091A00190E001968770992780933D
:10144000A00195CF69857A858B859C850E94E705EB
:101450008DCF682F80910001909101010E949D1510
:101460000895682F80910001909101010E94AB15B1
:10147000089580910001909101010E94B91508958D
:101480008091F80185958595859508958091F8015D
:10149000877008959091F801977081E009F480E0D9
:1014A000089580911B02089590911B02892B8093CF
:1014B0001B020895809590911B02982390931B0224
:1014C000089510921B02089590911A02892B80931F
:1014D0001A020895809590911A02982390931A0207
:1014E000089510921A0208958091F90108950895BF
:1014F0000E94770A08959091690292FF08C0909126
:10150000F901981721F08093F9010E94780A089553
:101510008091F901882329F01092F90180E00E945E
:10152000780A0895CF93DF93E0910001F0910101D3
:1015300080911B028083E0910001F0910101808184
:1015400090911A02892B80839091F901992381F05F
:10155000E0910001F09101018081892B80838091CD
:101560000001909101010E94091581110E94880AD1
:10157000C0910001D091010140E250E068ED71E0BE
:10158000CE010E94DA1D892B59F080E2FE01A8ED00
:10159000B1E001900D928A95E1F7CE010E94971477
:1015A000DF91CF91089508950E94D30A08959091F4
:1015B000690292FF11C098E0899F90011124622B6B
:1015C0006093F8010E9439068091F8018595859510
:1015D00085950E94D40A08950E94390608951092B4
:1015E000F80180E00E94D40A08959091F801809556
:1015F00089238093F801282F277091F4282F082E33
:10160000000C330B9217130659F09091690292FF68
:1016100007C08595859585950E9449060E94EF0A29
:1016200008959091690292FB222720F9281769F00A
:1016300080FB92F99093690280916802909169020F
:101640000E94590B82E00E94F50A08958091690278
:1016500082FB882780F991E089270E94110B089569
:1016600081E00E94110B089580E00E94110B089503
:101670006FEF7FEF90E080E00E941C1E089590E0E5
:1016800080E00E94F81D21E0873E9E4F09F020E097
:10169000822F089582E090E00E94F01D089583E07B
:1016A00090E00E94F01D089584E090E00E94F81DF3
:1016B0000895BC0184E090E00E941C1E0895AB01D7
:1016C000BC018FE090E00E94101E0895AB01BC01A8
:1016D00083E190E00E94101E089560E070E0CB016D
:1016E0000E94660B089560E070E0CB010E945F0BE2
:1016F0000E946D0B089567EE7EEF90E080E00E94FF
:101700001C1E60E082E090E00E94FE1D60E083E02D
:1017100090E00E94FE1D10929F0110929E0160E0D9
:1017200074E184E090E00E941C1E60E086E090E09E
:101730000E94FE1D6FEF87E090E00E94FE1D40E0DA
:1017400050E0BA0188E090E00E94101E60E08DE059
:1017500090E00E94FE1D40E050E0BA0188E190E078
:101760000E94101E60E087E190E00E94FE1D40E0B4
:1017700050E0BA018CE190E00E94101E70E060E041
:1017800080E290E00E941C1E40E050E0BA0188E137
:1017900090E00E94101E0E94730B08950E947B0B24
:1017A0000895682F8EE090E00E94FE1D0895A5E048
:1017B000B0E0EDEDFBE00C949D1D0E947A168C01CB
:1017C00080911C0290911D0280179107A1F08FEF6C
:1017D00089838A831B820E947A168160782F9D8379
:1017E0008C8349815A816B818D810E945A021093AA
:1017F0001D0200931C022596E4E00C94B91D0E9482
:101800008616609325027093260280932702909398
:101810002802609321027093220280932302909306
:1018200024020895089508950E94130C08950895C0
:101830000E94170C089581E0089582EC9EE00E94BA
:1018400080140E94120C0E94140C08950E941B0C1C
:1018500008950E94260C0895089508950E942C0C66
:101860000E942D0C08950E94E10E0E942E02089500
:101870000E9471160E94A00F0E94330C0E94180C47
:101880000895A5E0B0E0E7E4FCE00C94971D0E9409
:101890001B0C81110AC00E94D70B0E94D6110E9416
:1018A00041022596EAE00C94B31D0E94B60F1091F8
:1018B0001E0280E00E94070F18130EC010911F0235
:1018C00081E00E94070F811307C01091200282E07F
:1018D0000E94070F1817F9F28091290281FD0E94DA
:1018E0000D0F0E94290CC82E8EE1A82E82E0B82E82
:1018F00010E0812F0E94070F082FF50181915F01F1
:10190000081731F1D02ED826F12CEE24E3948D2D3A
:101910008E21B1F0CC20A1F0F9821A8391E0802FC2
:101920008E2109F490E09B830E947A168160782FC3
:101930009D838C8349815A816B818D810E945A02DB
:10194000F394EE0CF3E0FF12E2CFF5013197008340
:101950001F5F133071F60E94FF0B9FCF1F93CF9331
:10196000DF930E94DD0DEC01C11580E5D807F0F58D
:10197000C11580E4D80708F09CC0C03ED10520F511
:10198000CD3CD10508F082C0C83AD10578F4C53AFB
:10199000D10508F073C0C130D10519F1209709F1C4
:1019A000C430D105F0F4D0E0C0E01BC0C33CD10589
:1019B000D0F7C85AD0E0CC0FDD1FC45BDE4F0990D2
:1019C000D881C02DD4640DC0C11580E2D80708F0BD
:1019D000D1C0C11581E0D80708F05AC0C83ED10572
:1019E00010F7CE01DF91CF911F910895C03682E5A7
:1019F000D80718F5C03482E5D80708F06BC0C032AC
:101A000082E5D80708F05FC0C11582E5D80708F461
:101A100097C02C2F2695269580E2289F90011124AF
:101A20008C2F8370C1E0D0E002C0CC0FDD1F8A95FF
:101A3000E2F7C22BD32BDD68D4CFC03A82E5D807BA
:101A400060F4C03882E5D80708F459C0CF71D0E0FF
:101A5000DC2FCC27C46FD06AC4CFC03C82E5D80746
:101A600008F462C0C03E82E5D80708F09CCFDC2FA6
:101A7000CC27CC27DF71C06FD06AB3CFC55AD0E076
:101A8000CE57DE4FC881D0E0D064ABCFD065A9CFB0
:101A90008D2F0E947F0E182FCE0199270E94DD0DF9
:101AA000C12FD0E0DC2FCC27CC27DF71C82BD92B5E
:101AB00098CFCE0199270E94DD0DCC27DF70C82B6F
:101AC000D92BD06A8ECFCF71D0E0DC2FCC27C16F5D
:101AD000D06A87CF2C2F26952695277080E2289FE5
:101AE000900111248C2F8370C1E0D0E002C0CC0F94
:101AF000DD1F8A95E2F7C22BD32BDC6872CF2C2F27
:101B000026952695277080E2289F900111248C2F1E
:101B10008370C1E0D0E002C0CC0FDD1F8A95E2F7F0
:101B2000C22BD32BDA685DCF8C2F8F710E947F0E72
:101B3000C82FD0E0DC2FCC27CC27DF71D06251CF6B
:101B40008C2F8F710E947F0E55E0D695C7955A95C0
:101B5000E1F7CF70D0E0DC2FCC27282F30E084FFD6
:101B600005C044E0220F331F4A95E1F7C22BD32B67
:101B7000D06937CF8D2F8F710E947F0E182FCE0125
:101B800099270E94DD0DC12FD0E0DC2FCC27CC2778
:101B9000DF71C82BD92BD2CF462F733030F463308E
:101BA00020F4672F0E945001089590E080E008958E
:101BB0000E94CC0D0E94AE0C089582389105B9F1B7
:101BC000B0F48133910509F47DC048F48932910560
:101BD00009F46DC08A32910509F47BC008958533FC
:101BE000910509F45FC08933910509F10895833E99
:101BF0009105D9F138F4803E910529F1823E910595
:101C000079F10895863E9105D9F1873E910509F451
:101C10003EC0843E910541F52091690221FF24C018
:101C20008091680284FD19C087EE90E008952091AC
:101C30006802237009F05AC02091690223FF14C082
:101C400089E290E008952091680220FD38C030912B
:101C5000690230FF09C024FF43C090E080E008958E
:101C60002091680222FDF7CF08952091680222FD9D
:101C70003AC03091690230FD39C024FFF5CFEDCF75
:101C80002091680223FFF0CF24FDE7CFCDCF209134
:101C9000680223FD2EC03091690231FFEECF84EE41
:101CA00090E008952091680225FFDECFC9CF2091F2
:101CB000680225FD21C02091690223FFD5CF89E369
:101CC00090E0D2CF2091680226FFCECF8AE290E04A
:101CD00008952091680226FFC7CF81E390E0089520
:101CE00083EE90E0089582EE90E0089580EE90E01B
:101CF000089586EE90E0089585E390E00895909130
:101D0000680292FF06C0282F28712830F9F4877FD7
:101D1000846093FF06C0282F28712831F1F4877E54
:101D200084612091690220FF06C0382F3871383055
:101D3000D9F4877F816021FF06C0282F28712831C0
:101D4000D1F4877E816194FD877E0895282F2471C8
:101D50002430F9F68B7F8860DCCF282F2471243162
:101D600001F78B7E8861DDCF382F3171313019F763
:101D70008E7F8860E0CF282F2171213121F78E7E60
:101D80008861E1CF80E008950E94380B08950E9499
:101D9000B60F2FEF86E791E0215080409040E1F7A9
:101DA00000C000000E94B60F80E00E94070F80FF75
:101DB00004C00E94C40E0E94C51608950E94C70E5A
:101DC00008950E943F0B811102C00E94CE0B0E9419
:101DD0004A0B809329020E94540B909369028093CE
:101DE00068020E94DE0E0E944F0B90E00E94FD05EB
:101DF00080919C0190919D010E941E060895089576
:101E00000E94FF0E089508950E94030F0895E82F81
:101E1000F0E0E359FD4F80810895089580EA8A95A6
:101E2000F1F7089500C008950E940E0F0895F894E8
:101E3000E82FE295EF70F0E031A1282F2F7081E0BC
:101E400090E001C0880F2A95EAF7982F9095932388
:101E500091A392A1892B82A37894089586E60E948B
:101E6000170F87E90E94170F86EC0E94170F81E970
:101E70000E94170F80E90E94170F84E90E94170F34
:101E80000895B0E0A0E0E7E4FFE00C94991DEC01B8
:101E9000D62E062F10E0C80188579E4F7C01FC010A
:101EA00080818F3F09F445C0F894E82FE295EF70E8
:101EB000F0E091A18F7021E030E001C0220F8A95FF
:101EC000EAF7892F822B81A382A12095282322A3C0
:101ED00078940E94120FE5E8F1E048E851E031E023
:101EE000C12C21912F3F51F1A22FA295AF70B0E0EC
:101EF00090968C9190E02F7002C0959587952A95C9
:101F0000E2F780FD1BC0832FC82A330F4E175F07EF
:101F100041F7F70180818F3F11F00E94170F61E0B8
:101F2000C11001C060E08D2D0E94140FC00FD11FA1
:101F3000C882CDB7DEB7E8E00C94B51D80E0E4CFF1
:101F40000E942E0F83E0EDE6F2E0DF01982F1D9254
:101F50009A95E9F7EAE6F2E0DF011D928A95E9F742
:101F600083E00E94F50F0E94000F0895A3E0B0E007
:101F7000ECEBFFE00C949E1D19821A821B8260E03C
:101F8000CE0101960E94410F61E0CE0101960E94B0
:101F9000410F62E0CE0101960E94410F43E050E004
:101FA000BE016F5F7F4F8AE692E00E94DA1D21E05A
:101FB000009709F420E0892B49F089819A81AB814F
:101FC00080936A0290936B02A0936C0243E06DE6EB
:101FD00072E08AE692E00E94F60F182F0E94040F2A
:101FE000812F2396E3E00C94BA1D0895CF92DF92DF
:101FF000EF92FF920F931F93CF936C017B01042FFD
:10200000222349F081E080932C020E947A1690935B
:102010002B0280932A02C0912C02C1110AC0C0E099
:102020008C2FCF911F910F91FF90EF90DF90CF9069
:10203000089580912A0290912B020E949216059792
:1020400070F310E0A801B601C7010E94DA1D892BC8
:1020500041F0A801B601C7010E94E71D10922C02B1
:10206000DFCFC0E0FBCF0E944B180E94380C0E94CB
:10207000581808950E945D180E94410C0E9477181C
:1020800008950E9413160E9431180E941D0C0E9490
:1020900033100E943A100E942E0CFBCF8091330225
:1020A00080FF0DC06091070170E0660F771F6038F8
:1020B000710570F56115710569F1862F089581FF2D
:1020C00007C06091070184E0689FB0011124EFCF41
:1020D0006091070182FD0AC0809132028823A9F035
:1020E0002091060160910701821710F088E0ECCF83
:1020F000869FC001112433E0880F991F3A95E1F7BC
:10210000622F70E00E94751DD2CF68E070E0D5CFDD
:102110008FE7089581E008958091330280FF0CC01D
:102120006091030170E075956795759567956115E8
:10213000710549F1862F089581FF06C06091030162
:1021400070E075956795F3CF6091030182FD0BC038
:10215000909131029923A1F06091020180910301D5
:10216000961738F0682F70E06038710500F38FE73C
:102170000895899FC001112470E00E94751DF4CF5D
:1021800061E070E0D7CF81E008958D3C31F40E948A
:102190004E1081958093370208958E3C19F40E9469
:1021A0004E10F8CF8F3C31F40E944E1081958093F1
:1021B00036020895803D19F40E944E10F8CF893DF3
:1021C00029F40E948C108093380208958A3D21F4EE
:1021D0000E948C108195F7CF8B3D31F40E948C10BA
:1021E00081958093390208958C3D19F40E948C10DA
:1021F000F8CF9FE2980F983070F4815D990B21E041
:1022000030E001C0220F8A95EAF780913502822BD7
:102210008093350208958D3D31F4809133028160C1
:102220008093330208958E3D21F4809133028260C1
:10223000F7CF8F3DB9F7809133028460F1CF4091A1
:1022400036028D3C59F48091370287FF0DC0109201
:10225000370241110BC01092320208C08E3C81F44B
:102260008091370218169CF3442381F08091380244
:1022700090913902892B09F05AC0109231020895C9
:102280008F3C49F447FFF0CF10923602809137021D
:102290008111ECCFE0CF803D19F41416ACF3E4CFFC
:1022A00090913802893D29F41916F4F610923802FB
:1022B000DBCF8A3D19F497FFD7CFF8CF9091390241
:1022C0008B3D29F497FFD0CF10923902CDCF8C3DB2
:1022D00019F41916CCF3C8CF9FE2980F983090F4F8
:1022E000815D990B21E030E0B90102C0660F771FD4
:1022F0008A95E2F7CB0180959091350289238093EE
:102300003502B2CF8D3D31F4809133028E7F8093C0
:102310003302AACF8E3D21F4809133028D7FF7CF17
:102320008F3D09F0A1CF809133028B7FF0CF0895CC
:102330000E947A169C019091360280913702982B68
:1023400021F03093300220932F0290913802809137
:102350003902982B21F030932E0220932D0284E332
:1023600092E00E94B114089586E0E4E3F2E0DF0118
:102370001D928A95E9F71092320210923102109262
:1023800033020895FC01828181110EC08381811185
:102390000BC08481811108C091E08581811101C049
:1023A00090E0892F8170089581E0FCCFA6E0B0E035
:1023B000ECEDF1E10C949E1D86E0E4E3F2E0DE0139
:1023C000119601900D928A95E1F7109236021092C3
:1023D000370210923802109239028B819C81892B2E
:1023E00089F080912F02909130020E949216AC01E8
:1023F000909132029923C9F1809108018417150642
:1024000008F440C08D819E81892B91F080912D022E
:1024100090912E020E949216AC0190913102992364
:1024200009F471C0809104018417150608F479C07D
:10243000BE016F5F7F4F84E392E00E94CB15811154
:1024400005C084E392E00E94C21181110E9498119C
:1024500086E0FE013196A4E3B2E001900D928A95E8
:10246000E1F72696E3E00C94BA1D209109018AE079
:10247000289F900111242417350720F69F5F909321
:10248000320202C09F3FD1F71B81112359F00E94F5
:102490004E109FEF11160CF491E0899F802D1124AE
:1024A000809336021C81112359F00E944E109FEF39
:1024B00011160CF491E0899F802D1124809337022E
:1024C00030913602332309F49DCF20913702222325
:1024D00009F498CF45EB3403C0011124992359F036
:1024E0009093360245EB240390011124332339F0F5
:1024F0003093370287CF81E080933602F3CF81E0BB
:10250000809337027FCF209105018AE0289F9001B8
:1025100011242417350708F08BCF9F5F9093310269
:1025200002C09F3FD1F71D81112359F00E948C10EA
:102530009FEF11160CF491E0899F802D1124809358
:1025400038021E81112359F00E948C109FEF111642
:102550000CF491E0899F802D1124809339023091F1
:102560003802332309F464CF20913902222309F47D
:102570005FCF45EB3403C0011124992359F09093A8
:10258000380245EB240390011124332339F03093B2
:1025900039024ECF81E080933802F3CF81E08093FF
:1025A000390246CFCF93DF93EC01FB018281882370
:1025B00009F4D2C09E0130572332310508F0B2C071
:1025C0000E94540B9093690280936802FE01E150CF
:1025D000F047E232F10520F4E05CF14E0C94891DE5
:1025E0008091680281608093680293C08091690243
:1025F0008860809369028DC0809168028260F3CF09
:10260000809168028460EFCF809168028860EBCF90
:10261000809169028160EDCF809169028260E9CF8B
:10262000809168028061DFCF809168028062DBCF99
:10263000809168028064D7CF0E94AA0580916802C9
:102640008068D1CF809168028C60CDCF8091690283
:102650008360CFCF809168028E7FC5CF8091690261
:10266000877FC7CF809168028D7FBDCF8091680240
:102670008B7FB9CF80916802877FB5CF8091690247
:102680008E7FB7CF809169028D7FB3CF8091680232
:102690008F7EA9CF809168028F7DA5CF809168023F
:1026A0008F7BA1CF0E94AA05809168028F779BCF74
:1026B00080916802837F97CF809169028C7F99CF48
:1026C0008091680282FB992790F921E0922790FB84
:1026D00082F990FB83F987CF80916902982F9095BA
:1026E00091708E7F892B90FB81F983CF9091680246
:1026F000892F8F7B96FF806476CF0E94AA059091E8
:102700006802892F97FB87F980586DCF81E00E947E
:10271000D10B80916802909169020E94590B0E942E
:10272000AA0580E0DF91CF91089580E0F0CF9091ED
:102730006802892F8F7E94FF806155CF9091680247
:10274000892F8E7F90FF81604ECF90916902892FF3
:10275000877F93FF88604DCF81E0E4CFCF93DF93F5
:10276000EB0186319C4711F50E94510A9A81992309
:1027700099F08A7A91E009F490E090933A028111FD
:1027800009C089E20E94290A0E94920A80E0DF9132
:10279000CF91089585E3F6CF80913A02811104C06C
:1027A00089E20E94310AF0CF85E3FBCF81E0EFCFD1
:1027B0000F931F93CF93DF93C42FD22FFC018281FD
:1027C0008823C9F040933D020E947A1690933C0200
:1027D00080933B0280E28C0F883040F4C77081E028
:1027E00001C0880FCA95EAF70E944003DF91CF919C
:1027F0001F910F91089510913D02141332C08091E2
:102800003B0290913C020E949216883C910548F54B
:10281000C0E2CD0F1D17B9F080E2810F883040F47F
:10282000177081E001C0880F1A95EAF70E944703EC
:10283000C83048F481E09D2F977001C0880F9A95A9
:10284000EAF70E944003802F0E943703C83070F6D9
:10285000D77081E001C0880FDA95EAF70E9447033C
:10286000C5CF80E28C0F883008F6C77081E001C0C8
:10287000880FCA95EAF7F2CF0F93DB0188519C4786
:1028800087309105A0F5FC01EE59F14E0C94891D9D
:1028900006E221EE41EE6AE17CE7CD010E94D81309
:1028A00080E00F91089507E225EE45EE6BE17CE7AD
:1028B000F4CF06E221EE40EE68E17CE7EECF07E2DE
:1028C00025EE44EE69E17CE7E8CF06E221EE42EE38
:1028D0006CE17CE7E2CF07E225EE46EE6DE17CE7B6
:1028E000DCCF08E221E045EE6EE17CE7D6CF129620
:1028F0008C91882319F010923D02D3CF81E0D1CF83
:1029000090938D0180938C0108959093430280935E
:1029100042020895E0914202F0914302309729F07B
:102920000190F081E02D0995089580E00895E091EF
:102930004202F0914302309799F020911201222334
:1029400059F02091680227FF07C0DC012C911196F5
:102950002C93119726E02C930280F381E02D0995AA
:102960000895E0914202F0914302309739F022E05D
:10297000DC012C930480F581E02D09950895A3E0F6
:10298000B0E0E5ECF4E10C949F1D20914002309101
:10299000410228173907A1F0909341028093400229
:1029A000E0914202F0914302309751F023E02983F5
:1029B0009B838A830680F781E02DCE0101960995DD
:1029C0002396E2E00C94BB1DA3E0B0E0EAEEF4E154
:1029D0000C949F1D20913E0230913F022817390729
:1029E000A1F090933F0280933E02E0914202F09169
:1029F0004302309751F024E029839B838A83068029
:102A0000F781E02DCE01019609952396E2E00C9422
:102A1000BB1DFC01329680911201882321F0809128
:102A200068029EE187FF96E080E0915008F40895E7
:102A300021912223D1F38F5FF8CF662301F12091FA
:102A400012012223F1F02091680227FF1AC0462FBD
:102A50004695469546954E3190F4677021E030E0FA
:102A600002C0220F331F6A95E2F7840F911DFC010B
:102A7000828190E02823392381E0232B69F480E0D0
:102A80000895FC01329608962191261721F0E81747
:102A9000F907D1F7F4CF81E008959C01FC0132964B
:102AA0009FEF80E04191461751F09F3F19F441118B
:102AB00001C0982F8F5F8630A9F79F3F09F40895D2
:102AC000290F311D97FD3A95F90162830895FC01A4
:102AD000329608962191261303C0DF0111971C92AC
:102AE000E817F907B9F70895E62FE695E695E69514
:102AF000EE3168F4E80FF92FF11D677021E030E046
:102B000001C0220F6A95EAF78281822B82830895A1
:102B1000E62FE695E695E695EE3170F4E80FF92F8D
:102B2000F11D677021E030E001C0220F6A95EAF7DD
:102B30002095828128232283089520911201222347
:102B400039F02091680227FF03C00E947415089590
:102B50000E944D15089520911201222339F02091F1
:102B6000680227FF03C00E94881508950E94671518
:102B70000895FC01329680911201882351F08091D2
:102B8000680287FF06C08EE1DF011D928A95E9F792
:102B9000089586E0F9CF46E050E00E94DA1D21E07A
:102BA000892B09F420E0822F089508950E94D515FD
:102BB0000895811106C081E0809344020E94D615D9
:102BC000089582E0F9CF83E0809344020E94D615F5
:102BD00008950E94D915089581E0809344020E94CF
:102BE000D61508950E94EC150895089508950E9441
:102BF000F6150895089508950E94F5150895CF9348
:102C00000E94FA150E94B60F0E94FB15C0E08C2F9F
:102C10000E94070F811105C0CF5FC330C1F7CF916C
:102C2000089581E0FCCF85B7806885BF85B780684F
:102C300085BF08951F921FB61F9211248F939F93F3
:102C4000AF93BF9380914502811113C080917002B0
:102C500090917102A0917202B09173024196A11DF0
:102C6000B11D8093700290937102A0937202B09391
:102C70007302BF91AF919F918F911F901FBE1F90C4
:102C8000189580917802843031F10E9411021092DF
:102C9000450288E190E020E40FB6F894A89580936F
:102CA00060000FBE2093600083B7817F846083BF84
:102CB00083B7816083BF7894889583B78E7F83BF05
:102CC0000FB6F894A89580916000886180936000A9
:102CD000109260000FBE08950E94AA050E9416027D
:102CE000089582E084BD93E095BD9AEF97BD8093EF
:102CF0006E0008952FB7F894809170029091710240
:102D0000A0917202B09173022FBF08952FB7F8946B
:102D100060917002709171028091720290917302C1
:102D20002FBF08959C014FB7F89480917002909145
:102D30007102A0917202B09173024FBF821B930B7C
:102D4000089578941F921FB61F9211248F939F931A
:102D5000AF93BF938091700290917102A091720223
:102D6000B09173020196A11DB11D809370029093E2
:102D70007102A0937202B0937302BF91AF919F91C1
:102D80008F911F901FBE1F90189587E797E790932C
:102D900001088093000888E19AE00FB6F894A8959E
:102DA000809360000FBE90936000FFCF88E19AE0AF
:102DB0000FB6F894A895809360000FBE90936000C2
:102DC000FFCF8091660208959B01BA01909178022D
:102DD0009430E9F48F708093E9009FEF8091E800D0
:102DE000915085FD06C085ED8A95F1F7000091119F
:102DF000F5CF8091E80085FF0AC050E040E0C901AE
:102E00000E94EE188091E8008E778093E800089584
:102E100043E050E0BC0182E00E94E416089546E0E1
:102E200050E0BC0182E00E94E4160895CF93DF9346
:102E3000EC0180911201811111C048E050E0BE0107
:102E400081E00E94E41680E2FE01A6E4B2E0019077
:102E50000D928A95E1F7DF91CF91089580916802F4
:102E600087FF05C040E282E050E0BE01EACF48E0C3
:102E700081E0FACF80917702811109C00E947E1A09
:102E80000E94DB1A8091E20084608093E200089542
:102E90001092770208950E94EC15089560917402D3
:102EA00081E0611101C080E00E94E31508959091D6
:102EB000780281E0943009F080E0609174020E9411
:102EC000E915089542E061EC81E00E94FA1942E2BE
:102ED00061EC82E00E94FA199091780281E09430CE
:102EE00009F080E0609174020E94D91508958091E4
:102EF0007A02833009F461C030F48130D1F182303C
:102F000009F49EC008958A3009F48AC08B3009F410
:102F10006FC0893009F050C080917902813209F088
:102F20004BC080917D0290917E02029708F044C0D0
:102F30008091E800877F8093E8008091E80082FF1D
:102F400037C09091F3008091F200029731F48091A4
:102F5000F100813011F0863021F48091F1008093EE
:102F600066028091E8008B778093E8000E942E1A19
:102F700023C080917902813AF9F48091E800877F3B
:102F80008093E80080917D0290917E02892B61F40C
:102F900060E286E492E070E00E943D198091E800D2
:102FA0008B778093E800089560E090E080E0F3CFB5
:102FB000809178028111C1CF089580917902813A80
:102FC000D9F780917D0290917E02892BA9F780919B
:102FD000E800877F8093E8008091E80080FFFCCFC5
:102FE000809112018093F1008091E8008E77BCCF30
:102FF00080917902813201F780917D0290917E0269
:10300000892BD1F68091E800877F8093E8000E94A9
:103010002E1A80917B02809312010E94AA050895C6
:1030200080917902813241F68091E800877F809318
:10303000E8000E942E1A80917C0280936702089516
:1030400080917902813A09F0B7CF8091E800877FBB
:103050008093E8008091E80080FFFCCF80916702B8
:10306000C1CF84B7877F84BF0FB6F894A8958091AD
:103070006000886180936000109260000FBE80E85D
:1030800090E00FB6F89480936100909361000FBEBA
:103090000E94F21508950E947E1A0E94DB1AE2EE49
:1030A000F0E080818460808378940E945A1D0895A6
:1030B0008AE091E00E94851408958091780285301D
:1030C00031F480917802853019F00E946C160895D1
:1030D0000E94411680917602882399F30E94FF1581
:1030E000882379F30E94D8180E94AA05EACF089590
:1030F0009A0140917F02509180020E9480180895A9
:10310000492F55274330510519F168F441305105D5
:1031100009F444C04230510509F445C090E080E014
:1031200050E040E025C04132510549F1423251059D
:10313000A9F780E490E043EF51E061157105C1F01B
:1031400086EB90E04DE351E06130710589F0E6CF08
:1031500099278130910581F0009729F00297F1F6C7
:10316000EEEBF0E002C0ECEEF0E0849190E0AF0115
:10317000F901518340830895E0EDF0E0F6CF89E056
:1031800090E042E051E06115710591F389E090E033
:103190004BE151E06130710559F3C0CF82E190E01D
:1031A0004BE251E0E5CF8BE390E040EF50E0E0CF21
:1031B00080E189BD82E189BD09B400FEFDCF809127
:1031C000D8008F7D8093D8008091E000826080934A
:1031D000E0008091E00081FDFCCF0895AF92BF92A6
:1031E000CF92DF92FF920F931F93CF93DF936C01E7
:1031F000EB018A010E944D1AF82E811123C001159E
:10320000110539F0F80180819181C81BD90BC80ED6
:10321000D91EB12CA12C2097A9F08091E80085FD42
:1032200022C08091E8008E778093E8000115110597
:10323000A1F0F80180819181A80EB91EB182A0820F
:1032400085E0F82E8F2DDF91CF911F910F91FF9088
:10325000DF90CF90BF90AF9008950E944D1A8823C1
:10326000D1F2F82EEFCFF60181916F018093F1003A
:103270002197FFEFAF1ABF0ACECFFC0180917F02EA
:103280009091800286179707A0F06115710529F4C7
:103290009091E8009E779093E80090E061157105A9
:1032A00051F4911108C08091E80082FF34C080E0A1
:1032B0000895BC01F2CF809178028823C1F1853056
:1032C000C1F18091E80083FD30C08091E80082FD6B
:1032D000EACF8091E80080FFE1CF8091F300209158
:1032E000F200382F6115710519F02830310558F0BA
:1032F00091E02830310509F090E02091E8002E7728
:103300002093E800CBCF81918093F1006150710947
:103310002F5F3F4FE7CF80917802882341F08530BF
:1033200041F08091E80083FFBECF81E0089582E004
:10333000089583E00895FC0180917F0290918002BE
:1033400086179707A0F06115710529F48091E800B0
:103350008E778093E80090E06115710551F491112A
:1033600008C08091E80082FF35C080E00895BC016C
:10337000F2CF809178028823C9F18530C9F180911C
:10338000E80083FD31C08091E80082FDEACF8091A2
:10339000E80080FFE1CF8091F3002091F200382F08
:1033A0006115710519F02830310558F091E0283089
:1033B000310509F090E08091E8008E778093E80075
:1033C000CBCF84918093F1003196615071092F5FCA
:1033D0003F4FE6CF80917802882341F0853041F05D
:1033E0008091E80083FFBDCF81E0089582E00895D9
:1033F00083E00895982F973028F08F708093E9002C
:1034000081E008959093E900242F762F50E09817DB
:1034100031F07091EC002091ED005091F00021FD11
:1034200002C09F5FE8CF3091EB003E7F3093EB000E
:103430003091ED003D7F3093ED003091EB00316035
:103440003093EB007093EC002093ED005093F0006C
:103450002091EE0027FDE5CF80E00895809179026C
:1034600087FF13C08091E80082FF06C08091E800CA
:103470008B778093E80004C0809178028111F2CFAD
:103480000895809178028823D9F38091E80080FF25
:10349000F8CF8091E8008E77ECCF2091E400309156
:1034A000E50095E6A9012091EC00822F817020FFB4
:1034B00006C08091E80080FF06C080E0089520915A
:1034C000E80022FD1AC080917802882389F08530B7
:1034D00089F08091EB0085FD0FC02091E4003091D0
:1034E000E50042175307F9F29150E1F684E00895A0
:1034F00082E0089583E0089581E008950E94ED1A26
:103500000E94F51AE0EEF0E0808181608083E8EDB2
:10351000F0E080818F77808319BCA7EDB0E08C91BB
:103520008E7F8C9380818F7E8083109277020895A6
:103530000F931F93CF93DF930E94ED1A0E94F51A09
:10354000C8EDD0E088818F77888388818068888300
:1035500088818F7D888319BC109278021092740242
:10356000109276021092750200EE10E0F801808150
:103570008B7F808388818160888342E060E080E087
:103580000E94FA19E1EEF0E080818E7F8083E2EE06
:10359000F0E0808181608083808188608083F80191
:1035A00080818E7F8083888180618883DF91CF9145
:1035B0001F910F910895E8EDF0E080818F7E808368
:1035C000E7EDF0E080818160808384E082BF81E06C
:1035D000809377020E94981A0895E8EDF0E08081C8
:1035E0008E7F80831092E20008951092DA0010928C
:1035F000E10008951F920F920FB60F9211242F939E
:103600003F934F935F936F937F938F939F93AF936A
:10361000BF93EF93FF938091E10082FF0BC08091F5
:10362000E20082FF07C08091E1008B7F8093E10080
:103630000E94591D8091DA0080FF19C08091D80046
:1036400080FF15C08091DA008E7F8093DA00809130
:10365000D90080FF96C080E189BD82E189BD09B4AF
:1036600000FEFDCF81E0809378020E943A1780919E
:10367000E10080FF19C08091E20080FF15C08091B9
:10368000E2008E7F8093E2008091E200806180936F
:10369000E2008091D80080628093D80019BC85E058
:1036A000809378020E944E178091E10084FF2BC026
:1036B0008091E20084FF27C080E189BD82E189BD5D
:1036C00089B5982F917080FFFBCF8091D8008F7DB6
:1036D0008093D8008091E1008F7E8093E1008091FB
:1036E000E2008F7E8093E2008091E200816080930F
:1036F000E20080917402882309F449C084E0809339
:1037000078020E9457178091E10083FF29C08091C1
:10371000E20083FF25C08091E100877F8093E10074
:1037200082E080937802109274028091E1008E7F93
:103730008093E1008091E2008E7F8093E20080918F
:10374000E20080618093E20042E060E080E00E945D
:10375000FA198091F00088608093F0000E944B1766
:10376000FF91EF91BF91AF919F918F917F916F9159
:103770005F914F913F912F910F900FBE0F901F902F
:10378000189519BC109278020E94481770CF80914A
:10379000E30087FD93E090937802B3CF1F920F92DE
:1037A0000FB60F9211242F933F934F935F936F9314
:1037B0007F938F939F93AF93BF93CF93DF93EF93B9
:1037C000FF93D091E900DF708091EC00C82FC170A9
:1037D00080FDC0E81092E9008091F000877F80931F
:1037E000F00078940E94121C1092E9008091F00081
:1037F00088608093F000CD2BCF70C093E900FF91DB
:10380000EF91DF91CF91BF91AF919F918F917F9178
:103810006F915F914F913F912F910F900FBE0F903D
:103820001F901895AAE2B0E0E8E1FCE10C949E1D1F
:1038300089E792E02091F100FC012193CF01F2E0B1
:1038400081389F07B9F70E9477178091E80083FFBE
:103850001EC18091790290917A029A3008F017C1C6
:10386000E92FF0E0E759F14E0C94891D803899F06A
:10387000823809F00CC180917D028F70873008F08A
:1038800006C18093E9008091EB0085FB882780F9D1
:103890001092E90006C08091750290917602911114
:1038A00082609091E800977F9093E8008093F10008
:1038B0001092F1008091E8008E77E5C0882309F42A
:1038C000D3C0823009F0E3C080917B028111D6C061
:1038D00080917D028F702FEF280F263008F0D7C01F
:1038E0008093E9002091EB0020FFC8C0933031F4B1
:1038F0008091EB0080628093EB00C0C09091EB0060
:1039000090619093EB0021E030E001C0220F8A9596
:10391000EAF72093EA001092EA008091EB008860B9
:10392000EACF8111B4C010917B021F778091E30030
:103930008078812B8093E3008091E800877F8093DB
:10394000E8000E942E1A8091E80080FFFCCF809151
:10395000E30080688093E30082E0111183E08093AC
:10396000780295C08058823008F091C080917B0227
:1039700090917C028C3D23E09207A1F583E08A833D
:103980008AE289834FB7F894DE01139620E03EE087
:1039900051E2E32FF0E050935700E49120FF03C081
:1039A000E295EF703F5FEF708E2F90E0EA30C0F04D
:1039B000C7968D939D932F5F243159F74FBF809108
:1039C000E800877F8093E8006AE270E0CE0101960C
:1039D0000E943D198091E8008B778093E80057C0E2
:1039E000C096E7CF60917D0270917E02AE014F5F7D
:1039F0005F4F0E947818BC01892B09F448C0909150
:103A0000E800977F9093E80089819A810E949B1932
:103A1000E1CF8038E1F58091E800877F8093E8006E
:103A2000809174028093F10045CF811130C0909154
:103A30007B02923060F58091E800877F8093E800F8
:103A4000909374020E942E1A80917402882311F0C0
:103A500084E005C08091E30087FDFACF81E0809388
:103A600078020E94621713C080917B02813079F442
:103A700081E0933009F080E0809376021092E900B3
:103A80008091E800877F8093E8000E942E1A809141
:103A9000E80083FF0AC08091E800877F8093E800F8
:103AA0008091EB0080628093EB00AA96E3E00C9497
:103AB000BA1D0895CF93809178028823A1F0C09118
:103AC000E900CF709091EC00892F817090FD80E823
:103AD000C82B1092E9008091E80083FD0E94121C1F
:103AE000CF70C093E900CF91089597FB072E16F48D
:103AF000009407D077FD09D00E94C61D07FC05D0B1
:103B00003EF4909581959F4F0895709561957F4FF4
:103B10000895EE0FFF1F0590F491E02D09942F9268
:103B20003F924F925F926F927F928F929F92AF924D
:103B3000BF92CF92DF92EF92FF920F931F93CF939A
:103B4000DF93CDB7DEB7CA1BDB0B0FB6F894DEBF31
:103B50000FBECDBF09942A88398848885F846E8457
:103B60007D848C849B84AA84B984C884DF80EE80A1
:103B7000FD800C811B81AA81B981CE0FD11D0FB6AA
:103B8000F894DEBF0FBECDBFED010895AA1BBB1B8D
:103B900051E107C0AA1FBB1FA617B70710F0A61B4D
:103BA000B70B881F991F5A95A9F780959095BC016E
:103BB000CD010895FB01DC0104C08D9101908019B5
:103BC00021F441505040C8F7881B990B0895FB0120
:103BD000DC0102C001900D9241505040D8F7089589
:103BE000F999FECF92BD81BDF89A992780B50895C5
:103BF000A8E1B0E042E050E00C94241E262FF99991
:103C0000FECF92BD81BDF89A019700B4021639F03B
:103C10001FBA20BD0FB6F894FA9AF99A0FBE08950C
:103C20000396272F0E94FF1D0E94FE1D252F0E9434
:103C3000FF1D242F0C94FF1D0196272F0E94FF1DAE
:103C40000C94FE1DDC01CB01FC01F999FECF06C0EE
:103C5000F2BDE1BDF89A319600B40D92415050404A
:103C6000B8F70895F894FFCF8D038D03DE03DE03CC
:103C700051046D04BC03BC037204E304F204F204B7
:103C80002A139E133213FC120013361304133A1333
:103C900046131013971314134A1318134E13761365
:103CA0001C1352137D1322135813601308133E1371
:103CB0000C13421326135C136C1386139513F61220
:103CC0002E13A51359145F144814531465146B1460
:103CD0007114361C5E1C471D5E1C471D911CB21CD6
:063CE000471D091D151D22
:103CE600FA01280850011E0A1401E11616170F17CB
:103CF600081701E200E900EA00B500B600B700CDFA
:103D0600008301CC008A019201940121022302243E
:103D1600022502260227022A02B300B4006F0070B1
:103D2600009F01CB019F02A002818283E200E9008D
:103D3600EA00B500B600B700CD008301CC008A01C9
:103D4600920194012102230224022502260227025F
:103D56002A02B300B4006F0070009F01CB019F02DE
:0C3D6600A0028182839190946697C600B1
:00000001FF
